{
  "address": "0x5FbDB2315678afecb367f032d93F642f64180aa3",
  "abi": [
    {
      "inputs": [],
      "stateMutability": "nonpayable",
      "type": "constructor"
    },
    {
      "inputs": [],
      "name": "Candidate_Is_Already_Registered",
      "type": "error"
    },
    {
      "inputs": [],
      "name": "Candidate_Is_Not_Registered",
      "type": "error"
    },
    {
      "inputs": [],
      "name": "Not_Organizer",
      "type": "error"
    },
    {
      "inputs": [],
      "name": "Voter_Is_Already_Allowed",
      "type": "error"
    },
    {
      "inputs": [],
      "name": "Voter_Is_Not_Registered",
      "type": "error"
    },
    {
      "inputs": [],
      "name": "Wrong_Candidate_Id",
      "type": "error"
    },
    {
      "inputs": [],
      "name": "You_Already_Registered",
      "type": "error"
    },
    {
      "inputs": [],
      "name": "You_Already_Voted",
      "type": "error"
    },
    {
      "inputs": [],
      "name": "You_Are_Not_Approved_To_Vote",
      "type": "error"
    },
    {
      "anonymous": false,
      "inputs": [
        {
          "indexed": false,
          "internalType": "address",
          "name": "candidateAddress",
          "type": "address"
        },
        {
          "indexed": false,
          "internalType": "string",
          "name": "candidateName",
          "type": "string"
        },
        {
          "indexed": false,
          "internalType": "string",
          "name": "candidatePartyName",
          "type": "string"
        },
        {
          "indexed": false,
          "internalType": "uint256",
          "name": "candidateId",
          "type": "uint256"
        },
        {
          "indexed": false,
          "internalType": "uint256",
          "name": "totalVotes",
          "type": "uint256"
        },
        {
          "indexed": false,
          "internalType": "string",
          "name": "candidateImage",
          "type": "string"
        }
      ],
      "name": "CandidateAdded",
      "type": "event"
    },
    {
      "anonymous": false,
      "inputs": [
        {
          "indexed": false,
          "internalType": "address",
          "name": "candidateAddress",
          "type": "address"
        },
        {
          "indexed": false,
          "internalType": "uint256",
          "name": "candidateId",
          "type": "uint256"
        },
        {
          "indexed": false,
          "internalType": "address",
          "name": "voterAddress",
          "type": "address"
        },
        {
          "indexed": false,
          "internalType": "uint256",
          "name": "voterId",
          "type": "uint256"
        }
      ],
      "name": "SuccessfullyVoted",
      "type": "event"
    },
    {
      "anonymous": false,
      "inputs": [
        {
          "indexed": false,
          "internalType": "address",
          "name": "approvedVoterAddress",
          "type": "address"
        },
        {
          "indexed": false,
          "internalType": "uint256",
          "name": "approvedVoterId",
          "type": "uint256"
        }
      ],
      "name": "VoterApproved",
      "type": "event"
    },
    {
      "anonymous": false,
      "inputs": [
        {
          "indexed": false,
          "internalType": "address",
          "name": "voterAddress",
          "type": "address"
        },
        {
          "indexed": false,
          "internalType": "string",
          "name": "voterName",
          "type": "string"
        },
        {
          "indexed": false,
          "internalType": "uint256",
          "name": "voterId",
          "type": "uint256"
        },
        {
          "indexed": false,
          "internalType": "uint256",
          "name": "voterVotedTo",
          "type": "uint256"
        },
        {
          "indexed": false,
          "internalType": "bool",
          "name": "isVoted",
          "type": "bool"
        },
        {
          "indexed": false,
          "internalType": "bool",
          "name": "isVoterAllowed",
          "type": "bool"
        },
        {
          "indexed": false,
          "internalType": "string",
          "name": "voterImage",
          "type": "string"
        }
      ],
      "name": "VoterRegistered",
      "type": "event"
    },
    {
      "anonymous": false,
      "inputs": [
        {
          "indexed": false,
          "internalType": "address",
          "name": "_candidateAddress",
          "type": "address"
        },
        {
          "indexed": false,
          "internalType": "uint256",
          "name": "_candidateId",
          "type": "uint256"
        }
      ],
      "name": "WinnerDeclared",
      "type": "event"
    },
    {
      "inputs": [
        {
          "internalType": "address",
          "name": "_candidateAddress",
          "type": "address"
        },
        {
          "internalType": "string",
          "name": "_candidateName",
          "type": "string"
        },
        {
          "internalType": "string",
          "name": "_candidatePartyName",
          "type": "string"
        },
        {
          "internalType": "string",
          "name": "_candidateImage",
          "type": "string"
        }
      ],
      "name": "addCandidate",
      "outputs": [],
      "stateMutability": "nonpayable",
      "type": "function"
    },
    {
      "inputs": [
        {
          "internalType": "address",
          "name": "_voterAddress",
          "type": "address"
        }
      ],
      "name": "approveVoter",
      "outputs": [],
      "stateMutability": "nonpayable",
      "type": "function"
    },
    {
      "inputs": [],
      "name": "declareWinner",
      "outputs": [],
      "stateMutability": "nonpayable",
      "type": "function"
    },
    {
      "inputs": [],
      "name": "getApprovedVoters",
      "outputs": [
        {
          "internalType": "address[]",
          "name": "",
          "type": "address[]"
        }
      ],
      "stateMutability": "view",
      "type": "function"
    },
    {
      "inputs": [
        {
          "internalType": "address",
          "name": "_candidateAddress",
          "type": "address"
        }
      ],
      "name": "getCandidate",
      "outputs": [
        {
          "components": [
            {
              "internalType": "address",
              "name": "candidateAddress",
              "type": "address"
            },
            {
              "internalType": "string",
              "name": "candidateName",
              "type": "string"
            },
            {
              "internalType": "string",
              "name": "candidatePartyName",
              "type": "string"
            },
            {
              "internalType": "uint256",
              "name": "candidateId",
              "type": "uint256"
            },
            {
              "internalType": "uint256",
              "name": "totalVotes",
              "type": "uint256"
            },
            {
              "internalType": "string",
              "name": "candidateImage",
              "type": "string"
            }
          ],
          "internalType": "struct VotingSystem.CANDIDATE",
          "name": "",
          "type": "tuple"
        }
      ],
      "stateMutability": "view",
      "type": "function"
    },
    {
      "inputs": [],
      "name": "getCandidateAddresses",
      "outputs": [
        {
          "internalType": "address[]",
          "name": "",
          "type": "address[]"
        }
      ],
      "stateMutability": "view",
      "type": "function"
    },
    {
      "inputs": [],
      "name": "getElectionPhase",
      "outputs": [
        {
          "internalType": "enum VotingSystem.ElectionState",
          "name": "",
          "type": "uint8"
        }
      ],
      "stateMutability": "view",
      "type": "function"
    },
    {
      "inputs": [],
      "name": "getOrganizer",
      "outputs": [
        {
          "internalType": "address",
          "name": "",
          "type": "address"
        }
      ],
      "stateMutability": "view",
      "type": "function"
    },
    {
      "inputs": [],
      "name": "getRegisteredVoters",
      "outputs": [
        {
          "internalType": "address[]",
          "name": "",
          "type": "address[]"
        }
      ],
      "stateMutability": "view",
      "type": "function"
    },
    {
      "inputs": [],
      "name": "getTotalCandidates",
      "outputs": [
        {
          "internalType": "uint256",
          "name": "",
          "type": "uint256"
        }
      ],
      "stateMutability": "view",
      "type": "function"
    },
    {
      "inputs": [],
      "name": "getTotalVoters",
      "outputs": [
        {
          "internalType": "uint256",
          "name": "",
          "type": "uint256"
        }
      ],
      "stateMutability": "view",
      "type": "function"
    },
    {
      "inputs": [],
      "name": "getVotedVoters",
      "outputs": [
        {
          "internalType": "address[]",
          "name": "",
          "type": "address[]"
        }
      ],
      "stateMutability": "view",
      "type": "function"
    },
    {
      "inputs": [
        {
          "internalType": "address",
          "name": "_voterAddress",
          "type": "address"
        }
      ],
      "name": "getVoter",
      "outputs": [
        {
          "components": [
            {
              "internalType": "address",
              "name": "voterAddress",
              "type": "address"
            },
            {
              "internalType": "string",
              "name": "voterName",
              "type": "string"
            },
            {
              "internalType": "uint256",
              "name": "voterId",
              "type": "uint256"
            },
            {
              "internalType": "uint256",
              "name": "voterVotedTo",
              "type": "uint256"
            },
            {
              "internalType": "bool",
              "name": "isVoted",
              "type": "bool"
            },
            {
              "internalType": "bool",
              "name": "isVoterAllowed",
              "type": "bool"
            },
            {
              "internalType": "string",
              "name": "voterImage",
              "type": "string"
            }
          ],
          "internalType": "struct VotingSystem.VOTER",
          "name": "",
          "type": "tuple"
        }
      ],
      "stateMutability": "view",
      "type": "function"
    },
    {
      "inputs": [],
      "name": "getWinner",
      "outputs": [
        {
          "components": [
            {
              "internalType": "address",
              "name": "candidateAddress",
              "type": "address"
            },
            {
              "internalType": "string",
              "name": "candidateName",
              "type": "string"
            },
            {
              "internalType": "string",
              "name": "candidatePartyName",
              "type": "string"
            },
            {
              "internalType": "uint256",
              "name": "candidateId",
              "type": "uint256"
            },
            {
              "internalType": "uint256",
              "name": "totalVotes",
              "type": "uint256"
            },
            {
              "internalType": "string",
              "name": "candidateImage",
              "type": "string"
            }
          ],
          "internalType": "struct VotingSystem.CANDIDATE",
          "name": "",
          "type": "tuple"
        }
      ],
      "stateMutability": "view",
      "type": "function"
    },
    {
      "inputs": [],
      "name": "getWinnersAddresses",
      "outputs": [
        {
          "internalType": "address[]",
          "name": "",
          "type": "address[]"
        }
      ],
      "stateMutability": "view",
      "type": "function"
    },
    {
      "inputs": [],
      "name": "setElectionEndPhase",
      "outputs": [],
      "stateMutability": "nonpayable",
      "type": "function"
    },
    {
      "inputs": [],
      "name": "startVotingPhase",
      "outputs": [],
      "stateMutability": "nonpayable",
      "type": "function"
    },
    {
      "inputs": [
        {
          "internalType": "address",
          "name": "_candidateAddress",
          "type": "address"
        },
        {
          "internalType": "uint256",
          "name": "_candidateId",
          "type": "uint256"
        }
      ],
      "name": "vote",
      "outputs": [],
      "stateMutability": "nonpayable",
      "type": "function"
    },
    {
      "inputs": [
        {
          "internalType": "string",
          "name": "_voterName",
          "type": "string"
        },
        {
          "internalType": "string",
          "name": "_voterImage",
          "type": "string"
        }
      ],
      "name": "voterRegister",
      "outputs": [],
      "stateMutability": "nonpayable",
      "type": "function"
    }
  ],
  "transactionHash": "0x837222892c5b13c5cb83dd5991e46a2e92c42bf8bcce75451f0a4485d44f2179",
  "args": [],
  "numDeployments": 1,
  "solcInputHash": "6f2ff2d21059f871533147f7d0786833",
  "bytecode": "0x608060405234801561001057600080fd5b5033600260006101000a81548173ffffffffffffffffffffffffffffffffffffffff021916908373ffffffffffffffffffffffffffffffffffffffff160217905550614019806100616000396000f3fe608060405234801561001057600080fd5b50600436106101215760003560e01c8063656b4d44116100ad578063b7adcf1d11610071578063b7adcf1d1461029c578063c2def3b9146102cc578063cb43284e146102ea578063d4f50f98146102f4578063e45bf83d1461032457610121565b8063656b4d4414610206578063793cf218146102245780638155f736146102425780638e7ea5b214610260578063a96f184c1461027e57610121565b8063189d2958116100f4578063189d29581461018657806329c60c4e146101a45780632bc4a6e7146101ae5780632cd4c5bb146101cc5780635f74bbde146101ea57610121565b80630deb56ab146101265780630df7afab14610144578063119d4ddb1461016057806314034bd21461017c575b600080fd5b61012e610340565b60405161013b9190612d6b565b60405180910390f35b61015e60048036038101906101599190612f3e565b610351565b005b61017a60048036038101906101759190612ff9565b610625565b005b610184610839565b005b61018e610f58565b60405161019b91906130e4565b60405180910390f35b6101ac610fe6565b005b6101b6611187565b6040516101c391906130e4565b60405180910390f35b6101d4611215565b6040516101e1919061317d565b60405180910390f35b61020460048036038101906101ff91906131c4565b61122c565b005b61020e6115aa565b60405161021b91906130e4565b60405180910390f35b61022c611638565b6040516102399190612d6b565b60405180910390f35b61024a611649565b60405161025791906130e4565b60405180910390f35b6102686116d7565b6040516102759190613329565b60405180910390f35b610286611911565b60405161029391906130e4565b60405180910390f35b6102b660048036038101906102b19190612ff9565b61199f565b6040516102c39190613329565b60405180910390f35b6102d4611c18565b6040516102e1919061335a565b60405180910390f35b6102f2611c42565b005b61030e60048036038101906103099190612ff9565b611de4565b60405161031b9190613433565b60405180910390f35b61033e60048036038101906103399190613455565b612001565b005b600061034c60006122df565b905090565b33600260009054906101000a900473ffffffffffffffffffffffffffffffffffffffff1673ffffffffffffffffffffffffffffffffffffffff168173ffffffffffffffffffffffffffffffffffffffff16146103d9576040517f9bfeb57100000000000000000000000000000000000000000000000000000000815260040160405180910390fd5b600060038111156103ed576103ec613106565b5b600260149054906101000a900460ff16600381111561040f5761040e613106565b5b1461044f576040517f08c379a000000000000000000000000000000000000000000000000000000000815260040161044690613550565b60405180910390fd5b6000600360008773ffffffffffffffffffffffffffffffffffffffff1673ffffffffffffffffffffffffffffffffffffffff168152602001908152602001600020905060008160030154146104d0576040517f46eeef0e00000000000000000000000000000000000000000000000000000000815260040160405180910390fd5b6104da60006122ed565b60006104e660006122df565b9050868260000160006101000a81548173ffffffffffffffffffffffffffffffffffffffff021916908373ffffffffffffffffffffffffffffffffffffffff1602179055508582600101908161053c919061377c565b508482600201908161054e919061377c565b508082600301819055506000826004018190555083826005019081610573919061377c565b506004879080600181540180825580915050600190039060005260206000200160009091909190916101000a81548173ffffffffffffffffffffffffffffffffffffffff021916908373ffffffffffffffffffffffffffffffffffffffff1602179055507f3069526f0ab0195a5f26da48335cf679dfc8f5f990157d23d7cb7681d9c52a258787878486600401548960405161061496959493929190613887565b60405180910390a150505050505050565b33600260009054906101000a900473ffffffffffffffffffffffffffffffffffffffff1673ffffffffffffffffffffffffffffffffffffffff168173ffffffffffffffffffffffffffffffffffffffff16146106ad576040517f9bfeb57100000000000000000000000000000000000000000000000000000000815260040160405180910390fd5b6000600560008473ffffffffffffffffffffffffffffffffffffffff1673ffffffffffffffffffffffffffffffffffffffff1681526020019081526020016000209050600081600201540361072e576040517f7cc9625f00000000000000000000000000000000000000000000000000000000815260040160405180910390fd5b8060040160019054906101000a900460ff1615610777576040517fbf12ce0300000000000000000000000000000000000000000000000000000000815260040160405180910390fd5b60018160040160016101000a81548160ff0219169083151502179055506007839080600181540180825580915050600190039060005260206000200160009091909190916101000a81548173ffffffffffffffffffffffffffffffffffffffff021916908373ffffffffffffffffffffffffffffffffffffffff1602179055507fb5c56b500a42998ad9af14451fe5c07fa55fa09dbdf2136ada8a69bb66e5dc9583826002015460405161082c9291906138fd565b60405180910390a1505050565b33600260009054906101000a900473ffffffffffffffffffffffffffffffffffffffff1673ffffffffffffffffffffffffffffffffffffffff168173ffffffffffffffffffffffffffffffffffffffff16146108c1576040517f9bfeb57100000000000000000000000000000000000000000000000000000000815260040160405180910390fd5b600260038111156108d5576108d4613106565b5b600260149054906101000a900460ff1660038111156108f7576108f6613106565b5b14610937576040517f08c379a000000000000000000000000000000000000000000000000000000000815260040161092e90613972565b60405180910390fd5b60006008805490500361097f576040517f08c379a0000000000000000000000000000000000000000000000000000000008152600401610976906139de565b60405180910390fd5b6000600480549050036109c7576040517f08c379a00000000000000000000000000000000000000000000000000000000081526004016109be90613a70565b60405180910390fd5b6000610a086040518060400160405280600d81526020017f496e7469616c2077696e6e65720000000000000000000000000000000000000081525082612303565b610a1061239f565b6000600f805480602002602001604051908101604052809291908181526020018280548015610a9457602002820191906000526020600020905b8160009054906101000a900473ffffffffffffffffffffffffffffffffffffffff1673ffffffffffffffffffffffffffffffffffffffff1681526020019060010190808311610a4a575b50505050509050610adb6040518060400160405280600d81526020017f746f74616c2077696e6e65727300000000000000000000000000000000000000815250825161277c565b600181511115610b55576000610af18251612818565b9050610b326040518060400160405280600c81526020017f52616e646f6d20496e64657800000000000000000000000000000000000000008152508261277c565b818181518110610b4557610b44613a90565b5b6020026020010151925050610b74565b80600081518110610b6957610b68613a90565b5b602002602001015191505b610bb36040518060400160405280601481526020017f66696e616c2077696e6e6572206164647265737300000000000000000000000081525083612303565b6000600360008473ffffffffffffffffffffffffffffffffffffffff1673ffffffffffffffffffffffffffffffffffffffff1681526020019081526020016000206040518060c00160405290816000820160009054906101000a900473ffffffffffffffffffffffffffffffffffffffff1673ffffffffffffffffffffffffffffffffffffffff1673ffffffffffffffffffffffffffffffffffffffff168152602001600182018054610c659061359f565b80601f0160208091040260200160405190810160405280929190818152602001828054610c919061359f565b8015610cde5780601f10610cb357610100808354040283529160200191610cde565b820191906000526020600020905b815481529060010190602001808311610cc157829003601f168201915b50505050508152602001600282018054610cf79061359f565b80601f0160208091040260200160405190810160405280929190818152602001828054610d239061359f565b8015610d705780601f10610d4557610100808354040283529160200191610d70565b820191906000526020600020905b815481529060010190602001808311610d5357829003601f168201915b505050505081526020016003820154815260200160048201548152602001600582018054610d9d9061359f565b80601f0160208091040260200160405190810160405280929190818152602001828054610dc99061359f565b8015610e165780601f10610deb57610100808354040283529160200191610e16565b820191906000526020600020905b815481529060010190602001808311610df957829003601f168201915b505050505081525050905080600960008201518160000160006101000a81548173ffffffffffffffffffffffffffffffffffffffff021916908373ffffffffffffffffffffffffffffffffffffffff1602179055506020820151816001019081610e80919061377c565b506040820151816002019081610e96919061377c565b50606082015181600301556080820151816004015560a0820151816005019081610ec0919061377c565b509050506003600260146101000a81548160ff02191690836003811115610eea57610ee9613106565b5b02179055507f3cf1af53e79884a92609ce59db1ec9f584d88e2d14c8eaba43a21db81318301e600960000160009054906101000a900473ffffffffffffffffffffffffffffffffffffffff16600960030154604051610f4a9291906138fd565b60405180910390a150505050565b60606008805480602002602001604051908101604052809291908181526020018280548015610fdc57602002820191906000526020600020905b8160009054906101000a900473ffffffffffffffffffffffffffffffffffffffff1673ffffffffffffffffffffffffffffffffffffffff1681526020019060010190808311610f92575b5050505050905090565b33600260009054906101000a900473ffffffffffffffffffffffffffffffffffffffff1673ffffffffffffffffffffffffffffffffffffffff168173ffffffffffffffffffffffffffffffffffffffff161461106e576040517f9bfeb57100000000000000000000000000000000000000000000000000000000815260040160405180910390fd5b6002600381111561108257611081613106565b5b600260149054906101000a900460ff1660038111156110a4576110a3613106565b5b036110e4576040517f08c379a00000000000000000000000000000000000000000000000000000000081526004016110db90613b0b565b60405180910390fd5b600160038111156110f8576110f7613106565b5b600260149054906101000a900460ff16600381111561111a57611119613106565b5b1461115a576040517f08c379a000000000000000000000000000000000000000000000000000000000815260040161115190613b9d565b60405180910390fd5b60028060146101000a81548160ff0219169083600381111561117f5761117e613106565b5b021790555050565b6060600680548060200260200160405190810160405280929190818152602001828054801561120b57602002820191906000526020600020905b8160009054906101000a900473ffffffffffffffffffffffffffffffffffffffff1673ffffffffffffffffffffffffffffffffffffffff16815260200190600101908083116111c1575b5050505050905090565b6000600260149054906101000a900460ff16905090565b600160038111156112405761123f613106565b5b600260149054906101000a900460ff16600381111561126257611261613106565b5b146112a2576040517f08c379a000000000000000000000000000000000000000000000000000000000815260040161129990613c09565b60405180910390fd5b6000600560003373ffffffffffffffffffffffffffffffffffffffff1673ffffffffffffffffffffffffffffffffffffffff16815260200190815260200160002090506000816002015403611323576040517f7cc9625f00000000000000000000000000000000000000000000000000000000815260040160405180910390fd5b8060040160019054906101000a900460ff1661136b576040517f20ed83ff00000000000000000000000000000000000000000000000000000000815260040160405180910390fd5b8060040160009054906101000a900460ff16156113b4576040517f7b1d451a00000000000000000000000000000000000000000000000000000000815260040160405180910390fd5b6000600360008573ffffffffffffffffffffffffffffffffffffffff1673ffffffffffffffffffffffffffffffffffffffff16815260200190815260200160002090506000816003015403611435576040517fca749eec00000000000000000000000000000000000000000000000000000000815260040160405180910390fd5b82816003015414611472576040517f83e3ab7400000000000000000000000000000000000000000000000000000000815260040160405180910390fd5b60018160040160008282546114879190613c58565b9250508190555082826003018190555060018260040160006101000a81548160ff0219169083151502179055506008339080600181540180825580915050600190039060005260206000200160009091909190916101000a81548173ffffffffffffffffffffffffffffffffffffffff021916908373ffffffffffffffffffffffffffffffffffffffff1602179055507f3581c21421b73ede794c875731be4b7a658266e3fb9a683721ae14a3a73796188160000160009054906101000a900473ffffffffffffffffffffffffffffffffffffffff1682600301548460000160009054906101000a900473ffffffffffffffffffffffffffffffffffffffff16856002015460405161159c9493929190613c8c565b60405180910390a150505050565b6060600780548060200260200160405190810160405280929190818152602001828054801561162e57602002820191906000526020600020905b8160009054906101000a900473ffffffffffffffffffffffffffffffffffffffff1673ffffffffffffffffffffffffffffffffffffffff16815260200190600101908083116115e4575b5050505050905090565b600061164460016122df565b905090565b606060048054806020026020016040519081016040528092919081815260200182805480156116cd57602002820191906000526020600020905b8160009054906101000a900473ffffffffffffffffffffffffffffffffffffffff1673ffffffffffffffffffffffffffffffffffffffff1681526020019060010190808311611683575b5050505050905090565b6116df612caf565b60096040518060c00160405290816000820160009054906101000a900473ffffffffffffffffffffffffffffffffffffffff1673ffffffffffffffffffffffffffffffffffffffff1673ffffffffffffffffffffffffffffffffffffffff1681526020016001820180546117529061359f565b80601f016020809104026020016040519081016040528092919081815260200182805461177e9061359f565b80156117cb5780601f106117a0576101008083540402835291602001916117cb565b820191906000526020600020905b8154815290600101906020018083116117ae57829003601f168201915b505050505081526020016002820180546117e49061359f565b80601f01602080910402602001604051908101604052809291908181526020018280546118109061359f565b801561185d5780601f106118325761010080835404028352916020019161185d565b820191906000526020600020905b81548152906001019060200180831161184057829003601f168201915b50505050508152602001600382015481526020016004820154815260200160058201805461188a9061359f565b80601f01602080910402602001604051908101604052809291908181526020018280546118b69061359f565b80156119035780601f106118d857610100808354040283529160200191611903565b820191906000526020600020905b8154815290600101906020018083116118e657829003601f168201915b505050505081525050905090565b6060600f80548060200260200160405190810160405280929190818152602001828054801561199557602002820191906000526020600020905b8160009054906101000a900473ffffffffffffffffffffffffffffffffffffffff1673ffffffffffffffffffffffffffffffffffffffff168152602001906001019080831161194b575b5050505050905090565b6119a7612caf565b600360008373ffffffffffffffffffffffffffffffffffffffff1673ffffffffffffffffffffffffffffffffffffffff1681526020019081526020016000206040518060c00160405290816000820160009054906101000a900473ffffffffffffffffffffffffffffffffffffffff1673ffffffffffffffffffffffffffffffffffffffff1673ffffffffffffffffffffffffffffffffffffffff168152602001600182018054611a579061359f565b80601f0160208091040260200160405190810160405280929190818152602001828054611a839061359f565b8015611ad05780601f10611aa557610100808354040283529160200191611ad0565b820191906000526020600020905b815481529060010190602001808311611ab357829003601f168201915b50505050508152602001600282018054611ae99061359f565b80601f0160208091040260200160405190810160405280929190818152602001828054611b159061359f565b8015611b625780601f10611b3757610100808354040283529160200191611b62565b820191906000526020600020905b815481529060010190602001808311611b4557829003601f168201915b505050505081526020016003820154815260200160048201548152602001600582018054611b8f9061359f565b80601f0160208091040260200160405190810160405280929190818152602001828054611bbb9061359f565b8015611c085780601f10611bdd57610100808354040283529160200191611c08565b820191906000526020600020905b815481529060010190602001808311611beb57829003601f168201915b5050505050815250509050919050565b6000600260009054906101000a900473ffffffffffffffffffffffffffffffffffffffff16905090565b33600260009054906101000a900473ffffffffffffffffffffffffffffffffffffffff1673ffffffffffffffffffffffffffffffffffffffff168173ffffffffffffffffffffffffffffffffffffffff1614611cca576040517f9bfeb57100000000000000000000000000000000000000000000000000000000815260040160405180910390fd5b60016003811115611cde57611cdd613106565b5b600260149054906101000a900460ff166003811115611d0057611cff613106565b5b03611d40576040517f08c379a0000000000000000000000000000000000000000000000000000000008152600401611d3790613d1d565b60405180910390fd5b60006003811115611d5457611d53613106565b5b600260149054906101000a900460ff166003811115611d7657611d75613106565b5b14611db6576040517f08c379a0000000000000000000000000000000000000000000000000000000008152600401611dad90613daf565b60405180910390fd5b6001600260146101000a81548160ff02191690836003811115611ddc57611ddb613106565b5b021790555050565b611dec612cfb565b600560008373ffffffffffffffffffffffffffffffffffffffff1673ffffffffffffffffffffffffffffffffffffffff1681526020019081526020016000206040518060e00160405290816000820160009054906101000a900473ffffffffffffffffffffffffffffffffffffffff1673ffffffffffffffffffffffffffffffffffffffff1673ffffffffffffffffffffffffffffffffffffffff168152602001600182018054611e9c9061359f565b80601f0160208091040260200160405190810160405280929190818152602001828054611ec89061359f565b8015611f155780601f10611eea57610100808354040283529160200191611f15565b820191906000526020600020905b815481529060010190602001808311611ef857829003601f168201915b5050505050815260200160028201548152602001600382015481526020016004820160009054906101000a900460ff161515151581526020016004820160019054906101000a900460ff16151515158152602001600582018054611f789061359f565b80601f0160208091040260200160405190810160405280929190818152602001828054611fa49061359f565b8015611ff15780601f10611fc657610100808354040283529160200191611ff1565b820191906000526020600020905b815481529060010190602001808311611fd457829003601f168201915b5050505050815250509050919050565b6000600381111561201557612014613106565b5b600260149054906101000a900460ff16600381111561203757612036613106565b5b14612077576040517f08c379a000000000000000000000000000000000000000000000000000000000815260040161206e90613550565b60405180910390fd5b6000600560003373ffffffffffffffffffffffffffffffffffffffff1673ffffffffffffffffffffffffffffffffffffffff16815260200190815260200160002090508060040160009054906101000a900460ff1615612103576040517f7b1d451a00000000000000000000000000000000000000000000000000000000815260040160405180910390fd5b6000816002015414612141576040517f30e24bb100000000000000000000000000000000000000000000000000000000815260040160405180910390fd5b61214b60016122ed565b600061215760016122df565b9050338260000160006101000a81548173ffffffffffffffffffffffffffffffffffffffff021916908373ffffffffffffffffffffffffffffffffffffffff160217905550838260010190816121ad919061377c565b508082600201819055506000826003018190555060008260040160006101000a81548160ff02191690831515021790555060008260040160016101000a81548160ff0219169083151502179055508282600501908161220c919061377c565b506006339080600181540180825580915050600190039060005260206000200160009091909190916101000a81548173ffffffffffffffffffffffffffffffffffffffff021916908373ffffffffffffffffffffffffffffffffffffffff1602179055507f71ad87ef0c77970bdc70a5087f2dd3909ca4e4bffbf6ba510e58143192efccd233858385600301548660040160009054906101000a900460ff168760040160019054906101000a900460ff16896040516122d19796959493929190613dde565b60405180910390a150505050565b600081600001549050919050565b6001816000016000828254019250508190555050565b61239b8282604051602401612319929190613e5b565b6040516020818303038152906040527f319af333000000000000000000000000000000000000000000000000000000007bffffffffffffffffffffffffffffffffffffffffffffffffffffffff19166020820180517bffffffffffffffffffffffffffffffffffffffffffffffffffffffff8381831617835250505050612865565b5050565b60006123a961288e565b90506123b481612b7d565b60005b60048054905081101561277857600060036000600484815481106123de576123dd613a90565b5b9060005260206000200160009054906101000a900473ffffffffffffffffffffffffffffffffffffffff1673ffffffffffffffffffffffffffffffffffffffff1673ffffffffffffffffffffffffffffffffffffffff1681526020019081526020016000206040518060c00160405290816000820160009054906101000a900473ffffffffffffffffffffffffffffffffffffffff1673ffffffffffffffffffffffffffffffffffffffff1673ffffffffffffffffffffffffffffffffffffffff1681526020016001820180546124b49061359f565b80601f01602080910402602001604051908101604052809291908181526020018280546124e09061359f565b801561252d5780601f106125025761010080835404028352916020019161252d565b820191906000526020600020905b81548152906001019060200180831161251057829003601f168201915b505050505081526020016002820180546125469061359f565b80601f01602080910402602001604051908101604052809291908181526020018280546125729061359f565b80156125bf5780601f10612594576101008083540402835291602001916125bf565b820191906000526020600020905b8154815290600101906020018083116125a257829003601f168201915b5050505050815260200160038201548152602001600482015481526020016005820180546125ec9061359f565b80601f01602080910402602001604051908101604052809291908181526020018280546126189061359f565b80156126655780601f1061263a57610100808354040283529160200191612665565b820191906000526020600020905b81548152906001019060200180831161264857829003601f168201915b50505050508152505090506126b36040518060400160405280601a81526020017f53656c65637465642043616e64696461746520416464726573730000000000008152508260000151612303565b8281608001510361276457600f81600001519080600181540180825580915050600190039060005260206000200160009091909190916101000a81548173ffffffffffffffffffffffffffffffffffffffff021916908373ffffffffffffffffffffffffffffffffffffffff1602179055506127636040518060400160405280601e81526020017f735f77696e6e6572734164647265737320737461746520757064617465640000815250612c16565b5b50808061277090613e8b565b9150506123b7565b5050565b6128148282604051602401612792929190613ed3565b6040516020818303038152906040527fb60e72cc000000000000000000000000000000000000000000000000000000007bffffffffffffffffffffffffffffffffffffffffffffffffffffffff19166020820180517bffffffffffffffffffffffffffffffffffffffffffffffffffffffff8381831617835250505050612865565b5050565b60008044428460405160200161283093929190613f24565b6040516020818303038152906040528051906020012060001c9050600083826128599190613f90565b90508092505050919050565b60008151905060006a636f6e736f6c652e6c6f679050602083016000808483855afa5050505050565b60008060005b600480549050811015612b7557600060036000600484815481106128bb576128ba613a90565b5b9060005260206000200160009054906101000a900473ffffffffffffffffffffffffffffffffffffffff1673ffffffffffffffffffffffffffffffffffffffff1673ffffffffffffffffffffffffffffffffffffffff1681526020019081526020016000206040518060c00160405290816000820160009054906101000a900473ffffffffffffffffffffffffffffffffffffffff1673ffffffffffffffffffffffffffffffffffffffff1673ffffffffffffffffffffffffffffffffffffffff1681526020016001820180546129919061359f565b80601f01602080910402602001604051908101604052809291908181526020018280546129bd9061359f565b8015612a0a5780601f106129df57610100808354040283529160200191612a0a565b820191906000526020600020905b8154815290600101906020018083116129ed57829003601f168201915b50505050508152602001600282018054612a239061359f565b80601f0160208091040260200160405190810160405280929190818152602001828054612a4f9061359f565b8015612a9c5780601f10612a7157610100808354040283529160200191612a9c565b820191906000526020600020905b815481529060010190602001808311612a7f57829003601f168201915b505050505081526020016003820154815260200160048201548152602001600582018054612ac99061359f565b80601f0160208091040260200160405190810160405280929190818152602001828054612af59061359f565b8015612b425780601f10612b1757610100808354040283529160200191612b42565b820191906000526020600020905b815481529060010190602001808311612b2557829003601f168201915b50505050508152505090508281608001511115612b6157806080015192505b508080612b6d90613e8b565b915050612894565b508091505090565b612c1381604051602401612b919190612d6b565b6040516020818303038152906040527ff82c50f1000000000000000000000000000000000000000000000000000000007bffffffffffffffffffffffffffffffffffffffffffffffffffffffff19166020820180517bffffffffffffffffffffffffffffffffffffffffffffffffffffffff8381831617835250505050612865565b50565b612cac81604051602401612c2a9190613fc1565b6040516020818303038152906040527f41304fac000000000000000000000000000000000000000000000000000000007bffffffffffffffffffffffffffffffffffffffffffffffffffffffff19166020820180517bffffffffffffffffffffffffffffffffffffffffffffffffffffffff8381831617835250505050612865565b50565b6040518060c00160405280600073ffffffffffffffffffffffffffffffffffffffff16815260200160608152602001606081526020016000815260200160008152602001606081525090565b6040518060e00160405280600073ffffffffffffffffffffffffffffffffffffffff168152602001606081526020016000815260200160008152602001600015158152602001600015158152602001606081525090565b6000819050919050565b612d6581612d52565b82525050565b6000602082019050612d806000830184612d5c565b92915050565b6000604051905090565b600080fd5b600080fd5b600073ffffffffffffffffffffffffffffffffffffffff82169050919050565b6000612dc582612d9a565b9050919050565b612dd581612dba565b8114612de057600080fd5b50565b600081359050612df281612dcc565b92915050565b600080fd5b600080fd5b6000601f19601f8301169050919050565b7f4e487b7100000000000000000000000000000000000000000000000000000000600052604160045260246000fd5b612e4b82612e02565b810181811067ffffffffffffffff82111715612e6a57612e69612e13565b5b80604052505050565b6000612e7d612d86565b9050612e898282612e42565b919050565b600067ffffffffffffffff821115612ea957612ea8612e13565b5b612eb282612e02565b9050602081019050919050565b82818337600083830152505050565b6000612ee1612edc84612e8e565b612e73565b905082815260208101848484011115612efd57612efc612dfd565b5b612f08848285612ebf565b509392505050565b600082601f830112612f2557612f24612df8565b5b8135612f35848260208601612ece565b91505092915050565b60008060008060808587031215612f5857612f57612d90565b5b6000612f6687828801612de3565b945050602085013567ffffffffffffffff811115612f8757612f86612d95565b5b612f9387828801612f10565b935050604085013567ffffffffffffffff811115612fb457612fb3612d95565b5b612fc087828801612f10565b925050606085013567ffffffffffffffff811115612fe157612fe0612d95565b5b612fed87828801612f10565b91505092959194509250565b60006020828403121561300f5761300e612d90565b5b600061301d84828501612de3565b91505092915050565b600081519050919050565b600082825260208201905092915050565b6000819050602082019050919050565b61305b81612dba565b82525050565b600061306d8383613052565b60208301905092915050565b6000602082019050919050565b600061309182613026565b61309b8185613031565b93506130a683613042565b8060005b838110156130d75781516130be8882613061565b97506130c983613079565b9250506001810190506130aa565b5085935050505092915050565b600060208201905081810360008301526130fe8184613086565b905092915050565b7f4e487b7100000000000000000000000000000000000000000000000000000000600052602160045260246000fd5b6004811061314657613145613106565b5b50565b600081905061315782613135565b919050565b600061316782613149565b9050919050565b6131778161315c565b82525050565b6000602082019050613192600083018461316e565b92915050565b6131a181612d52565b81146131ac57600080fd5b50565b6000813590506131be81613198565b92915050565b600080604083850312156131db576131da612d90565b5b60006131e985828601612de3565b92505060206131fa858286016131af565b9150509250929050565b600081519050919050565b600082825260208201905092915050565b60005b8381101561323e578082015181840152602081019050613223565b60008484015250505050565b600061325582613204565b61325f818561320f565b935061326f818560208601613220565b61327881612e02565b840191505092915050565b61328c81612d52565b82525050565b600060c0830160008301516132aa6000860182613052565b50602083015184820360208601526132c2828261324a565b915050604083015184820360408601526132dc828261324a565b91505060608301516132f16060860182613283565b5060808301516133046080860182613283565b5060a083015184820360a086015261331c828261324a565b9150508091505092915050565b600060208201905081810360008301526133438184613292565b905092915050565b61335481612dba565b82525050565b600060208201905061336f600083018461334b565b92915050565b60008115159050919050565b61338a81613375565b82525050565b600060e0830160008301516133a86000860182613052565b50602083015184820360208601526133c0828261324a565b91505060408301516133d56040860182613283565b5060608301516133e86060860182613283565b5060808301516133fb6080860182613381565b5060a083015161340e60a0860182613381565b5060c083015184820360c0860152613426828261324a565b9150508091505092915050565b6000602082019050818103600083015261344d8184613390565b905092915050565b6000806040838503121561346c5761346b612d90565b5b600083013567ffffffffffffffff81111561348a57613489612d95565b5b61349685828601612f10565b925050602083013567ffffffffffffffff8111156134b7576134b6612d95565b5b6134c385828601612f10565b9150509250929050565b600082825260208201905092915050565b7f5265676973747261696f6e732061726520636c6f7365642043757272656e746c60008201527f7921000000000000000000000000000000000000000000000000000000000000602082015250565b600061353a6022836134cd565b9150613545826134de565b604082019050919050565b600060208201905081810360008301526135698161352d565b9050919050565b7f4e487b7100000000000000000000000000000000000000000000000000000000600052602260045260246000fd5b600060028204905060018216806135b757607f821691505b6020821081036135ca576135c9613570565b5b50919050565b60008190508160005260206000209050919050565b60006020601f8301049050919050565b600082821b905092915050565b6000600883026136327fffffffffffffffffffffffffffffffffffffffffffffffffffffffffffffffff826135f5565b61363c86836135f5565b95508019841693508086168417925050509392505050565b6000819050919050565b600061367961367461366f84612d52565b613654565b612d52565b9050919050565b6000819050919050565b6136938361365e565b6136a761369f82613680565b848454613602565b825550505050565b600090565b6136bc6136af565b6136c781848461368a565b505050565b5b818110156136eb576136e06000826136b4565b6001810190506136cd565b5050565b601f82111561373057613701816135d0565b61370a846135e5565b81016020851015613719578190505b61372d613725856135e5565b8301826136cc565b50505b505050565b600082821c905092915050565b600061375360001984600802613735565b1980831691505092915050565b600061376c8383613742565b9150826002028217905092915050565b61378582613204565b67ffffffffffffffff81111561379e5761379d612e13565b5b6137a8825461359f565b6137b38282856136ef565b600060209050601f8311600181146137e657600084156137d4578287015190505b6137de8582613760565b865550613846565b601f1984166137f4866135d0565b60005b8281101561381c578489015182556001820191506020850194506020810190506137f7565b868310156138395784890151613835601f891682613742565b8355505b6001600288020188555050505b505050505050565b600061385982613204565b61386381856134cd565b9350613873818560208601613220565b61387c81612e02565b840191505092915050565b600060c08201905061389c600083018961334b565b81810360208301526138ae818861384e565b905081810360408301526138c2818761384e565b90506138d16060830186612d5c565b6138de6080830185612d5c565b81810360a08301526138f0818461384e565b9050979650505050505050565b6000604082019050613912600083018561334b565b61391f6020830184612d5c565b9392505050565b7f456c656374696f6e7320617265206e6f7420456e646564205965742100000000600082015250565b600061395c601c836134cd565b915061396782613926565b602082019050919050565b6000602082019050818103600083015261398b8161394f565b9050919050565b7f4e6f20766f74657220566f746564205965740000000000000000000000000000600082015250565b60006139c86012836134cd565b91506139d382613992565b602082019050919050565b600060208201905081810360008301526139f7816139bb565b9050919050565b7f5468657265206973206e6f2063616e64696461746520696e2074686520656c6560008201527f6374696f6e732079657421000000000000000000000000000000000000000000602082015250565b6000613a5a602b836134cd565b9150613a65826139fe565b604082019050919050565b60006020820190508181036000830152613a8981613a4d565b9050919050565b7f4e487b7100000000000000000000000000000000000000000000000000000000600052603260045260246000fd5b7f456c656374696f6e732061726520616c726561647920656e6465642100000000600082015250565b6000613af5601c836134cd565b9150613b0082613abf565b602082019050919050565b60006020820190508181036000830152613b2481613ae8565b9050919050565b7f43757272656e742070686173652073686f756c6420626520766f74696e67207460008201527f6f20656e6420656c656374696f6e732100000000000000000000000000000000602082015250565b6000613b876030836134cd565b9150613b9282613b2b565b604082019050919050565b60006020820190508181036000830152613bb681613b7a565b9050919050565b7f566f74696e6720697320436c6f7365642043757272656e746c79210000000000600082015250565b6000613bf3601b836134cd565b9150613bfe82613bbd565b602082019050919050565b60006020820190508181036000830152613c2281613be6565b9050919050565b7f4e487b7100000000000000000000000000000000000000000000000000000000600052601160045260246000fd5b6000613c6382612d52565b9150613c6e83612d52565b9250828201905080821115613c8657613c85613c29565b5b92915050565b6000608082019050613ca1600083018761334b565b613cae6020830186612d5c565b613cbb604083018561334b565b613cc86060830184612d5c565b95945050505050565b7f566f74696e6720706861736520697320616c7265616479206163746976650000600082015250565b6000613d07601e836134cd565b9150613d1282613cd1565b602082019050919050565b60006020820190508181036000830152613d3681613cfa565b9050919050565b7f43757272656e742070686173652073686f756c6420626520726567697374726160008201527f696f6e20746f20737461727420766f74696e6700000000000000000000000000602082015250565b6000613d996033836134cd565b9150613da482613d3d565b604082019050919050565b60006020820190508181036000830152613dc881613d8c565b9050919050565b613dd881613375565b82525050565b600060e082019050613df3600083018a61334b565b8181036020830152613e05818961384e565b9050613e146040830188612d5c565b613e216060830187612d5c565b613e2e6080830186613dcf565b613e3b60a0830185613dcf565b81810360c0830152613e4d818461384e565b905098975050505050505050565b60006040820190508181036000830152613e75818561384e565b9050613e84602083018461334b565b9392505050565b6000613e9682612d52565b91507fffffffffffffffffffffffffffffffffffffffffffffffffffffffffffffffff8203613ec857613ec7613c29565b5b600182019050919050565b60006040820190508181036000830152613eed818561384e565b9050613efc6020830184612d5c565b9392505050565b6000819050919050565b613f1e613f1982612d52565b613f03565b82525050565b6000613f308286613f0d565b602082019150613f408285613f0d565b602082019150613f508284613f0d565b602082019150819050949350505050565b7f4e487b7100000000000000000000000000000000000000000000000000000000600052601260045260246000fd5b6000613f9b82612d52565b9150613fa683612d52565b925082613fb657613fb5613f61565b5b828206905092915050565b60006020820190508181036000830152613fdb818461384e565b90509291505056fea2646970667358221220d06bec7a363f9cf28e28a7586e27cccb242fab5e7e68c5c09cee02eeb9c4a94c64736f6c63430008110033",
  "devdoc": {
    "kind": "dev",
    "methods": {},
    "version": 1
  },
  "userdoc": {
    "kind": "user",
    "methods": {},
    "version": 1
  },
  "storageLayout": {
    "storage": [
      {
        "astId": 102,
        "contract": "contracts/Voting.sol:VotingSystem",
        "label": "s_canidateIds",
        "offset": 0,
        "slot": "0",
        "type": "t_struct(Counter)5_storage"
      },
      {
        "astId": 105,
        "contract": "contracts/Voting.sol:VotingSystem",
        "label": "s_voterIds",
        "offset": 0,
        "slot": "1",
        "type": "t_struct(Counter)5_storage"
      },
      {
        "astId": 107,
        "contract": "contracts/Voting.sol:VotingSystem",
        "label": "s_organizer",
        "offset": 0,
        "slot": "2",
        "type": "t_address"
      },
      {
        "astId": 124,
        "contract": "contracts/Voting.sol:VotingSystem",
        "label": "s_electionState",
        "offset": 20,
        "slot": "2",
        "type": "t_enum(ElectionState)121"
      },
      {
        "astId": 142,
        "contract": "contracts/Voting.sol:VotingSystem",
        "label": "s_candidates",
        "offset": 0,
        "slot": "3",
        "type": "t_mapping(t_address,t_struct(CANDIDATE)137_storage)"
      },
      {
        "astId": 145,
        "contract": "contracts/Voting.sol:VotingSystem",
        "label": "s_candidateAddresses",
        "offset": 0,
        "slot": "4",
        "type": "t_array(t_address)dyn_storage"
      },
      {
        "astId": 179,
        "contract": "contracts/Voting.sol:VotingSystem",
        "label": "s_voters",
        "offset": 0,
        "slot": "5",
        "type": "t_mapping(t_address,t_struct(VOTER)174_storage)"
      },
      {
        "astId": 182,
        "contract": "contracts/Voting.sol:VotingSystem",
        "label": "s_votersAddresses",
        "offset": 0,
        "slot": "6",
        "type": "t_array(t_address)dyn_storage"
      },
      {
        "astId": 185,
        "contract": "contracts/Voting.sol:VotingSystem",
        "label": "s_approvedVotersAddresses",
        "offset": 0,
        "slot": "7",
        "type": "t_array(t_address)dyn_storage"
      },
      {
        "astId": 188,
        "contract": "contracts/Voting.sol:VotingSystem",
        "label": "s_votedVotersAddress",
        "offset": 0,
        "slot": "8",
        "type": "t_array(t_address)dyn_storage"
      },
      {
        "astId": 223,
        "contract": "contracts/Voting.sol:VotingSystem",
        "label": "s_winnerCandidate",
        "offset": 0,
        "slot": "9",
        "type": "t_struct(CANDIDATE)137_storage"
      },
      {
        "astId": 226,
        "contract": "contracts/Voting.sol:VotingSystem",
        "label": "s_winnersAddresses",
        "offset": 0,
        "slot": "15",
        "type": "t_array(t_address)dyn_storage"
      }
    ],
    "types": {
      "t_address": {
        "encoding": "inplace",
        "label": "address",
        "numberOfBytes": "20"
      },
      "t_array(t_address)dyn_storage": {
        "base": "t_address",
        "encoding": "dynamic_array",
        "label": "address[]",
        "numberOfBytes": "32"
      },
      "t_bool": {
        "encoding": "inplace",
        "label": "bool",
        "numberOfBytes": "1"
      },
      "t_enum(ElectionState)121": {
        "encoding": "inplace",
        "label": "enum VotingSystem.ElectionState",
        "numberOfBytes": "1"
      },
      "t_mapping(t_address,t_struct(CANDIDATE)137_storage)": {
        "encoding": "mapping",
        "key": "t_address",
        "label": "mapping(address => struct VotingSystem.CANDIDATE)",
        "numberOfBytes": "32",
        "value": "t_struct(CANDIDATE)137_storage"
      },
      "t_mapping(t_address,t_struct(VOTER)174_storage)": {
        "encoding": "mapping",
        "key": "t_address",
        "label": "mapping(address => struct VotingSystem.VOTER)",
        "numberOfBytes": "32",
        "value": "t_struct(VOTER)174_storage"
      },
      "t_string_storage": {
        "encoding": "bytes",
        "label": "string",
        "numberOfBytes": "32"
      },
      "t_struct(CANDIDATE)137_storage": {
        "encoding": "inplace",
        "label": "struct VotingSystem.CANDIDATE",
        "members": [
          {
            "astId": 126,
            "contract": "contracts/Voting.sol:VotingSystem",
            "label": "candidateAddress",
            "offset": 0,
            "slot": "0",
            "type": "t_address"
          },
          {
            "astId": 128,
            "contract": "contracts/Voting.sol:VotingSystem",
            "label": "candidateName",
            "offset": 0,
            "slot": "1",
            "type": "t_string_storage"
          },
          {
            "astId": 130,
            "contract": "contracts/Voting.sol:VotingSystem",
            "label": "candidatePartyName",
            "offset": 0,
            "slot": "2",
            "type": "t_string_storage"
          },
          {
            "astId": 132,
            "contract": "contracts/Voting.sol:VotingSystem",
            "label": "candidateId",
            "offset": 0,
            "slot": "3",
            "type": "t_uint256"
          },
          {
            "astId": 134,
            "contract": "contracts/Voting.sol:VotingSystem",
            "label": "totalVotes",
            "offset": 0,
            "slot": "4",
            "type": "t_uint256"
          },
          {
            "astId": 136,
            "contract": "contracts/Voting.sol:VotingSystem",
            "label": "candidateImage",
            "offset": 0,
            "slot": "5",
            "type": "t_string_storage"
          }
        ],
        "numberOfBytes": "192"
      },
      "t_struct(Counter)5_storage": {
        "encoding": "inplace",
        "label": "struct Counters.Counter",
        "members": [
          {
            "astId": 4,
            "contract": "contracts/Voting.sol:VotingSystem",
            "label": "_value",
            "offset": 0,
            "slot": "0",
            "type": "t_uint256"
          }
        ],
        "numberOfBytes": "32"
      },
      "t_struct(VOTER)174_storage": {
        "encoding": "inplace",
        "label": "struct VotingSystem.VOTER",
        "members": [
          {
            "astId": 161,
            "contract": "contracts/Voting.sol:VotingSystem",
            "label": "voterAddress",
            "offset": 0,
            "slot": "0",
            "type": "t_address"
          },
          {
            "astId": 163,
            "contract": "contracts/Voting.sol:VotingSystem",
            "label": "voterName",
            "offset": 0,
            "slot": "1",
            "type": "t_string_storage"
          },
          {
            "astId": 165,
            "contract": "contracts/Voting.sol:VotingSystem",
            "label": "voterId",
            "offset": 0,
            "slot": "2",
            "type": "t_uint256"
          },
          {
            "astId": 167,
            "contract": "contracts/Voting.sol:VotingSystem",
            "label": "voterVotedTo",
            "offset": 0,
            "slot": "3",
            "type": "t_uint256"
          },
          {
            "astId": 169,
            "contract": "contracts/Voting.sol:VotingSystem",
            "label": "isVoted",
            "offset": 0,
            "slot": "4",
            "type": "t_bool"
          },
          {
            "astId": 171,
            "contract": "contracts/Voting.sol:VotingSystem",
            "label": "isVoterAllowed",
            "offset": 1,
            "slot": "4",
            "type": "t_bool"
          },
          {
            "astId": 173,
            "contract": "contracts/Voting.sol:VotingSystem",
            "label": "voterImage",
            "offset": 0,
            "slot": "5",
            "type": "t_string_storage"
          }
        ],
        "numberOfBytes": "192"
      },
      "t_uint256": {
        "encoding": "inplace",
        "label": "uint256",
        "numberOfBytes": "32"
      }
    }
  }
}